S013000057694669576561746865722E73726563D2
S11300000C94A0020C94BD020C94BD020C94BD028D
S11300100C94BD020C94BD020C94BD020C94BD0260
S11300200C94BD020C94BD020C94BD020C94C2113C
S11300300C94BD020C94BD020C94BD020C94BD0240
S11300400C94BD020C94BD020C946B190C94BD026B
S11300500C949B190C942E180C94BD020C94BD02A4
S11300600C94BD020C94BD02700E810E920EA30E70
S1130070B40EC50ED50EEE0EFF0E100F210F320F6B
S1130080430F5C0F6D0F7E0F141719171F172417DA
S113009029172E17331738173D1747174C175617BC
S11300A060176A1770177A1707634236B79BD8A789
S11300B01A39685618AEBAAB558C1D3CB7CC576389
S11300C0BD6DEDFD753EF6177231BF000000803F37
S11300D008000000BE922449123EABAAAA2ABECD53
S11300E0CCCC4C3E00000080BEABAAAAAA3E0000C5
S11300F00000BF000000803F0000000000084178BD
S1130100D3BB4387D1133D190E3CC3BD4282AD2BF3
S11301103E68EC8276BED98FE1A93E4C80EFFFBEEB
S113012001C4FF7F3F00000000006364696E6F70CC
S1130130737578585B0041542B43495053454E44E2
S11301403D25642C25640D0A0041542B434950532A
S1130150454E443D25642C25640D0A0041542B432F
S113016049504D55583D310D0A00415445300D0A52
S11301700041542B5253540D0A0048656174657252
S1130180207468726573686F6C642076616C756541
S11301903A2025640D0A004865617465722074680C
S11301A0726573686F6C64207365740D0A0048652A
S11301B061746572207468726573686F6C6420730F
S11301C065742E20546F6F206D616E79207061729A
S11301D0616D657465727320676976656E0D0A00DA
S11301E0486561746572207468726573686F6C64C5
S11301F0206861736E2774206265656E2073657470
S11302002E20476976656E20706172616D65746534
S11302107220776173206F7574206F662072616E2F
S113022067650D0A00486561746572206973206E04
S11302306F77206F66660D0A0048656174657220E9
S11302406973206E6F77206F6E0D0A0048656174C4
S11302506572206572726F720D0A0048656174657B
S11302607220736574206175746F0D0A00486561AE
S113027074657220736574206F6E0D0A00486561A1
S113028074657220736574206F66660D0A00534BA3
S113029059204F5645524C41500D0A5363616C65C9
S11302A03A2025750D0A4F66667365743A202569F0
S11302B00D0A004465766963652063616C69627246
S11302C0617465640D0A0044657669636520636141
S11302D06C696272617465642E20546F6F206D6165
S11302E06E7920706172616D6574657273206769DF
S11302F076656E0D0A0043616C6962726174696FA0
S11303006E20696E76616C69642E204F6E65206F75
S11303106620676976656E20706172616D657465CB
S1130320727320776173206F7574206F6620726119
S11303306E67650D0A0054656D706572617475723F
S1130340653A2025642E25640D0A48756D69646933
S113035074793A2025752E257525250D0A52616973
S11303606E3A2025732C20257525250D0A536B79AB
S1130370206F7665726C61703A20256425250D0A1C
S113038050726573737572653A20257520685061E3
S11303900D0A0054656D70657261747572653A205A
S11303A02D25642E25640D0A48756D696469747978
S11303B03A2025752E257525250D0A5261696E3A58
S11303C02025732C20257525250D0A536B79206F64
S11303D07665726C61703A20256425250D0A507289
S11303E06573737572653A202575206850610D0A2E
S11303F000536B79206F7665726C61703A202564C6
S113040025250D0A005261696E3A204E4F2C202595
S11304107525250D0A005261696E3A205945532C01
S113042020257525250D0A00507265737375726554
S11304303A202575206850610D0A0054656D706579
S11304407261747572653A2025642E25640D0A0064
S113045054656D70657261747572653A202D2564FA
S11304602E25640D0A0048756D69646974793A2013
S113047025752E257525250D0A0053746174757331
S11304803A204F4B0D0A005374617475733A20453A
S113049052524F520D0A004E616D653A20446F6D01
S11304A00D0A000A2B4950442C25642C252A643A51
S11304B0252A73005749464920474F542049500084
S11304C0390533052D05270521051B0515050F05E0
S11304D009050305FD04F804F204EC04E604E00451
S11304E03A73746174003A70726573003A68727496
S11304F068003A687774680068737461003A6861E8
S11305007574003A686F6E6E003A686F6666003AFA
S11305107263616C003A7763616C003A776461746A
S1130520003A736B796F003A7261696E003A6875CC
S11305306D69003A74656D70003A6E616D65000016
S113054011241FBECFEFD8E0DEBFCDBF11E0A0E085
S1130550B1E0E0EEFBE402C005900D92A833B107D0
S1130560D9F724E0A8E3B1E001C01D92AC35B2078D
S1130570E1F70E949D160C94EE250C940000FC01FA
S1130580892B81F083819481892B71F085819681F7
S1130590892B61F081E027813085232B09F080E0ED
S11305A0819508958FEF08958FEF08958FEF089543
S11305B0CF92DF92EF92FF921F93CF93DF93182F86
S11305C07B016A01E901C9010E94BF0281110DC0CA
S11305D08A81813009F01068EB81FC819601A701C2
S11305E0612F8981099581118CEFDF91CF911F9142
S11305F0FF90EF90DF90CF900895BF92CF92DF925B
S1130600EF92FF920F931F93CF93DF93CDB7DEB793
S113061064970FB6F894DEBF0FBECDBF6C018B019B
S11306207901B42E8AE0841720F40F2EFAE0BF2E4D
S1130630F02DC7010E94BF02811153C0C114D1041F
S113064009F451C00115110509F44FC0BB2009F488
S11306504EC0D8018C918983F7018281813009F4DD
S113066048C0F6012FEF2B0D30E02F5F3F4F2C0DCC
S11306703D1D80818F778193E217F307D1F7F1E075
S1130680FB15D8F496012F5F3F4FFE0131960F5FA3
S11306901F4F81E0D9019D919D019183D8019D91C6
S11306A08D0192838F5F32968B15A0F32B2D30E052
S11306B0220F331F2150310902C02B2D30E0D70106
S11306C01596ED91FC911697AE014F5F5F4FD601E1
S11306D06C91D70111968C910995882371F08CEF58
S11306E00CC08FEF0AC08FEF08C08FEF06C08DEFEC
S11306F004C0B1E0BB1530F2E0CF64960FB6F894B5
S1130700DEBF0FBECDBFDF91CF911F910F91FF9040
S1130710EF90DF90CF90BF900895CF92DF92EF9249
S1130720FF921F93CF93DF9300D01F92CDB7DEB714
S1130730182F6B017A0182FF27C082EF8983FB01A6
S1130740828187708B839A0141E0BE016D5F7F4F88
S1130750CE0101960E94FD02811117C084EF8983A6
S1130760970141E050E0BE016E5F7F4F0E94D802C6
S113077081110BC0970141E0BE016E5F7F4FCE0136
S113078001960E94FD0201C081E0912F937071F1E6
S113079084EF8A83970141E050E0BE016F5F7F4F91
S11307A00E94D802811122C010FF0AC0F601808184
S11307B0880F880F982F9C718981837E892B898368
S11307C011FF0BC08981282F2F71F6019181F0E26E
S11307D09F9FC0011124822B8983970141E0BE01B0
S11307E06F5F7F4FCE0102960E94FD020F900F9023
S11307F00F90DF91CF911F91FF90EF90DF90CF90FA
S11308000895CF92DF92FF920F931F93CF93DF93BC
S113081000D0CDB7DEB7F82E6B018A0185EF89834E
S11308209A0141E050E0BE016E5F7F4F0E94D80202
S1130830811122C0F3FE0AC0F6018381880F880F5C
S1130840982F9C718A81837E892B8A83F4FE0BC046
S11308508A81282F2F71F6019481F0E29F9FC001B5
S11308601124822B8A83980141E0BE016E5F7F4F81
S1130870CE0101960E94FD020F900F90DF91CF915F
S11308801F910F91FF90DF90CF9008950F931F93C6
S1130890CF93DF9300D000D0CDB7DEB78C010E9498
S11308A0BF02811129C0980144E050E0BE016F5F8E
S11308B07F4F82EF0E94D80281111EC099819770E8
S11308C0F80190AB9B81292F2C7130E03595279549
S11308D03595279526A792959695977097A79C810D
S11308E0292F2C7130E0359527953595279521AB27
S11308F092959695977092AB0F900F900F900F90E2
S1130900DF91CF911F910F9108950F931F93CF9370
S1130910DF938C01EB01CB010E94BF0281110BC05C
S11309209E0141E050E0B80184EF0E94D802F80132
S1130930908193709083DF91CF911F910F910895CF
S1130940FF920F931F93CF93DF9300D01F92CDB7E5
S1130950DEB78C0180EE89831A8286EB8B83C80113
S11309600E94BF0281112EC0980141E0BE016D5F5B
S11309707F4FCE0101960E94FD02811123C00F2EEC
S1130980F6E0FF2EF02DD8011796ED91FC91189703
S113099062E070E080E090E00995980141E050E069
S11309A0BE016E5F7F4F83EF0E94D802811107C0A2
S11309B0FA94FF2021F09A8190FDE5CF03C09A813B
S11309C090FD8AEF0F900F900F90DF91CF911F91C0
S11309D00F91FF900895EF92FF921F93CF93DF93AF
S11309E0CDB7DEB76B970FB6F894DEBF0FBECDBFA1
S11309F07C0119820E94BF028111E7C015E09701B2
S1130A0041E050E0BE016F5F7F4F80ED0E94D8024D
S1130A108111C9C08981803609F0C5C0D7018C9382
S1130A20C7010E94A0048111CDC0BE016E5F7F4F3B
S1130A308AE1FB0111928A95E9F797014AE150E0B6
S1130A4088E80E94D8028111BDC08B8190E0982F64
S1130A5088272A81822BD7011A969C938E93199703
S1130A608D8190E0982F88272C81822B1C969C9353
S1130A708E931B978F8190E0982F88272E81822B4D
S1130A801E969C938E931D97898590E0982F8827B6
S1130A902885822B50969C938E931F978B8590E08C
S1130AA0982F88272A85822B52969C938E93519750
S1130AB08D8590E0982F88272C85822B54969C93C3
S1130AC08E9353978F8590E0982F88272E85822BBD
S1130AD056969C938E935597898990E0982F8827F2
S1130AE02889822B58969C938E9357978B8990E0F4
S1130AF0982F88272A89822B5A969C938E935997EC
S1130B008D8990E0982F88272C89822B5C969C9362
S1130B108E935B978F8990E0982F88272E89822B5C
S1130B205E969C938E935D97898D90E0982F88278D
S1130B30288D822B90969C938E935F978B8D9196A4
S1130B408C93970147E050E0BE016E5F7F4F81EECA
S1130B500E94D802811136C02B8130E0322F222727
S1130B609A81292BF70133A322A39C8194A39E810C
S1130B702D81F0E12F0290011124492F4F70242B75
S1130B80D70196963C932E9395972F81B0E12B0233
S1130B909001112492959F70292BF70130A727A368
S1130BA0988591A70FC0D7011796ED91FC911897DE
S1130BB061E070E080E090E00995115009F01FCFEA
S1130BC08EEF03C0111101C08EEF6B960FB6F8942F
S1130BD0DEBF0FBECDBFDF91CF911F91FF90EF908D
S1130BE008950F931F93CF93DF93CDB7DEB7299763
S1130BF00FB6F894DEBF0FBECDBF8C019C0144E05C
S1130C0050E0BE016F5F7F4F82EF0E94D8028111D6
S1130C1032C0898187708F832B81822F8C7190E001
S1130C2095958795959587958D832295269527701B
S1130C302E832C81822F8C7190E0959587959595C4
S1130C40879588872295269527702987C8010E9451
S1130C50A004811110C0A801BE016B5F7F4F8FE11A
S1130C600E948D03811107C0A801BE016B5F7F4FF5
S1130C708FE10E94010429960FB6F894DEBF0FBEDF
S1130C80CDBFDF91CF911F910F910895EF92FF9205
S1130C900F931F93CF93DF931F92CDB7DEB7082F27
S1130CA07B01CB010E94BF02182F81112BC0B70119
S1130CB0CE0101960E948504182F811123C08981D9
S1130CC0882329F0C7010E94F105811118C0802FE3
S1130CD0877049F0A701B701625D7F4F802F0E94A2
S1130CE08D0381110EC0802F887161F0B701625DA0
S1130CF07F4FA701802F0E940104182F03C0182FD3
S1130D0001C0182F812F0F90DF91CF911F910F9168
S1130D10FF90EF900895FF920F931F93CF93DF936B
S1130D2000D01F92CDB7DEB7F82E8B01CB010E9405
S1130D30BF0281112BC0B801CE0101960E94850427
S1130D40811124C08981882329F0C8010E94F105FA
S1130D5081111CC084EF8B83980141E050E0BE01F7
S1130D606E5F7F4F0E94D802811110C09A819C7FD0
S1130D708F2D8370F92EF82AFA82980141E0BE0182
S1130D806E5F7F4FCE0103960E94FD020F900F907D
S1130D900F90DF91CF911F910F91FF9008950F93C2
S1130DA01F93FC01DB01408150E060E070E08A01A8
S1130DB09B010F2EFCE0000F111F221F331FFA9519
S1130DC0D1F7F02D8181482F50E060E070E0440FAE
S1130DD0551F661F771F440F551F661F771F440F4B
S1130DE0551F661F771F440F551F661F771F402B23
S1130DF0512B622B732B828182958F70482B4D93DC
S1130E005D936D937C931397438150E060E070E0B1
S1130E108A019B010F2EFCE0000F111F221F331FBC
S1130E20FA95D1F7F02D8481482F50E060E070E00E
S1130E30440F551F661F771F440F551F661F771FEA
S1130E40440F551F661F771F440F551F661F771FDA
S1130E50402B512B622B732B858182958F70482BED
S1130E6014964D935D936D937C931797468150E050
S1130E7060E070E0762F652F542F44278781482B3C
S1130E8018964D935D936D937C931B971F910F91CF
S1130E9008952F923F924F925F926F927F928F921A
S1130EA09F92AF92BF92CF92DF92EF92FF920F93F5
S1130EB01F93CF93DF9300D01F92CDB7DEB7898302
S1130EC01B018A013B832A836115710509F400C45F
S1130ED04115510509F4FEC32115310509F4FCC37C
S1130EE0FA011482158216821782108211821282EC
S1130EF013821086118612861386877009F4C2C085
S1130F00FB01C480D580E680F780F90140805180E0
S1130F10B701A601689412F8769567955795479599
S1130F201694D1F7612C712CD301C201880F991F3B
S1130F30AA1FBB1F9A01AB01281B390B4A0B5B0B81
S1130F40A281B3810E94111F4B015C01D701C6012C
S1130F50689413F8B695A795979587951694D1F745
S1130F60BC01CD0164197509860997099B01AC017F
S1130F700E94781E6B017C01992334F4FFEFCF0E9D
S1130F80FFE0DF1EE11CF11CA7019601012E1CE00D
S1130F9055954795379527951A95D1F7102DEA81E0
S1130FA0FB81A481B5810E94111F75016401BB20DE
S1130FB034F4FFEFCF0EF7E0DF1EE11CF11C0B2E23
S1130FC0BBE0F594E794D794C794BA95D1F7B02DC4
S1130FD04B015C01992334F42FEF820E2FE3921E10
S1130FE0A11CB11CB501A401032E3EE075956795C3
S1130FF0579547953A95D1F7302DD701C601840FFF
S1131000951FA61FB71FEA81FB8181A392A3A3A307
S1131010B4A3AC01BD01440F551F661F771F440FD5
S1131020551F661F771F840F951FA61FB71F805873
S11310309F4FAF4FBF4FAC01BD0122F441505F4FF2
S11310406F4F7F4FBB2777FDBA95A72F962F852F1C
S11310508533F1E29F07A105B10524F084E391E211
S1131060A0E0B0E0803620EF92072FEFA207B2078E
S113107024F480E690EFAFEFBFEFF801848395830B
S1131080A683B783F981F0FFD1C1EA81FB81C1A0B6
S1131090D2A0E3A0F4A0FF202CF4FFEFCF1ADF0AC4
S11310A0EF0AFF0AF594E794D794C7942AEFD21A6B
S11310B0E108F108D701C601FF201CF40396A11D25
S11310C0B11DBC01CD01959587957795679595954B
S11310D08795779567959B01AC010E94781E2B013B
S11310E03C01EA81FB8122853385032E000C440BED
S11310F0550BDC01CB01772024F48150904EAF4F87
S1131100BF4FBC01CD01052E5DE095958795779580
S113111067955A95D1F7502D0E94781E4B015C01BA
S113112099232CF4F7E08F0E911CA11CB11C689438
S113113012F8B594A794979487941694D1F7EA81FA
S1131140FB81A085B185A70196010E94111F9B0117
S1131150AC01992324F42F5F3F4F4F4F5F4FDA01C7
S1131160C901B595A79597958795880E991EAA1ECE
S1131170BB1ED501C401BB201CF40197AC4FBF4F6B
S1131180072E72E1B595A795979587957A95D1F72E
S1131190702D9C01AD0130584F4F5F4FEA81FB81A8
S11311A0A681B7810E94061F4B015C01992334F488
S11311B0FFEF8F0EFFE79F1EA11CB11C072E7FE0DF
S11311C0B594A794979487947A95D1F7702D811448
S11311D09104A104B10409F41BC1D301C201772015
S11311E024F48150984FAF4FBF4F9C01AD01012EA5
S11311F01BE055954795379527951A95D1F7102DEE
S1131200EA81FB81A089B1890E94111F2B013C0155
S1131210A685B785A70196010E94111FDC01CB01A9
S1131220880F991FAA1FBB1F480E591E6A1E7B1EDA
S1131230D301C20177201CF40396A11DB11DB595FD
S1131240A79597958795B595A79597958795F10156
S11312504081518162817381C12CD12C76016894C3
S1131260E4F8C41AD50AE60AF70AEA81FB81448540
S11312705585052E000C660B770BBA0155274427BC
S1131280480F591F6A1F7B1F2A013B01772334F43F
S1131290FFEF4F0EFFE05F1E611C711C032E3CE04C
S11312A075946794579447943A95D1F7302DA701D4
S11312B096012419350946095709A5E3BCE00E94A3
S11312C0061F99235CF0660F771F881F991FA501DD
S11312D094010E94B01E69017A010AC0A50194011B
S11312E00E94B01E69017A01CC0CDD1CEE1CFF1CAF
S11312F0C701B601689412F8969587957795679516
S11313001694D1F79B01AC010E94781E9B01AC019D
S1131310012E1DE056954795379527951A95D1F7D7
S1131320102DEA81FB81A689B7890E94111F4B0108
S11313305C01992334F4FFEF8F0EFFE09F1EA11C84
S1131340B11C072E7CE0B594A794979487947A9562
S1131350D1F7702DEA81FB81A489B589A701960193
S113136056954795379527955695479537952795DB
S11313700E94111F2B013C01992334F4FFEF4F0EFF
S1131380FFE15F1E611C711CD301C201072E7DE0C9
S1131390B595A795979587957A95D1F7702D880E71
S11313A0991EAA1EBB1EEA81FB8182899389092E9C
S11313B0000CAA0BBB0B880E991EAA1EBB1ED501DE
S11313C0C401BB201CF40F96A11DB11D689413F831
S11313D0B595A795979587951694D1F7C80ED91EFC
S11313E0EA1EFB1EF0E3CF16F5E7DF06E104F10485
S11313F0A0F0D701C60121EBC2162DEAD20621E0E6
S1131400E206F10470F080EB9DEAA1E0B0E009C0CF
S113141080E395E7A0E0B0E004C080E395E7A0E0B6
S1131420B0E0F80180839183A283B383F981F2FF52
S113143055C1EA81FB8181A092A0A3A0B4A0FCE2E3
S11314409F1AF1E0AF0AB108F101C084D184E284AB
S1131450F3840B2EBEE0CC0CDD1CEE1CFF1CBA95F5
S1131460D1F7B02DEA81FB81448D558D052E000CFA
S1131470660B770B032E34E1440F551F661F771F4D
S11314803A95D1F7302DC41AD50AE60AF70AA68D83
S1131490B78DA50194010E94111FA7019601261B77
S11314A0370B480B590BDA01C901905CAF4FBF4FA2
S11314B06C017D01BB2334F43FEFC30E3FE7D31E21
S11314C0E11CF11C0B2EBFE0F594E794D794C7946C
S11314D0BA95D1F7B02DEA81FB81A38DB0E0A501C7
S11314E094010E94061F2B013C01992334F4FFEF61
S11314F04F0EF7E05F1E611C711C032E3BE07594D8
S11315006794579447943A95D1F7302D20E8520EBA
S1131510611C711CEA81FB81A0A10A2E000CBB0B8B
S1131520A50194010E94111F4B015C01992334F41D
S1131530FFEF8F0EF3E09F1EA11CB11CC501B40187
S1131540052E5AE095958795779567955A95D1F725
S1131550502DA30192010E94781E4B015C01992336
S113156034F42FEF820E23E0921EA11CB11CD5018E
S1131570C401072E7AE0B595A795979587957A9536
S1131580D1F7702D9C01AD01405E5F4FEA81FB8174
S1131590A18DB28D0E94111FDC01CB01905EAF4F73
S11315A0BF4F4C015D01BB2334F4FFEF8F0EFFE30B
S11315B09F1EA11CB11CA5019401012E1EE055958E
S11315C04795379527951A95D1F7102DC701B60180
S11315D00E94781E6B017C01DC01CB01FF2024F406
S11315E081509048AF4FBF4FBC01CD01052E5FE045
S11315F095958795779567955A95D1F7502D9B01C9
S1131600AC010E94781E4B015C0199232CF42FE756
S1131610820E911CA11CB11CA5019401689416F8BA
S113162055954795379527951694D1F7EA81FB810F
S1131630A08DB0E00E94061F4B015C0199232CF49D
S1131640FFE08F0E911CA11CB11CD501C40168944C
S113165013F8B595A795979587951694D1F7C81A59
S1131660D90AEA0AFB0A1AF4C12CD12C760121E02A
S1131670C216D104E10429E1F2063CF00F2EC12C7C
S1131680D12CE12CF9E1FF2EF02DD701C601FF206A
S113169024F48150904FAF4FBF4F072E7CE0B59597
S11316A0A795979587957A95D1F7702D813030E974
S11316B0930731E0A307B10520F080E090E9A1E0B1
S11316C0B0E0F80180879187A287B38780E007C0E4
S11316D08FEF05C08FEF03C08FEF01C080E00F9044
S11316E00F900F90DF91CF911F910F91FF90EF908A
S11316F0DF90CF90BF90AF909F908F907F906F902E
S11317005F904F903F902F900895DF92EF92FF9259
S11317100F931F93CF93DF93CDB7DEB764970FB6C4
S1131720F894DEBF0FBECDBFD82E7B018A01FE0127
S1131730319688E0DF011D928A95E9F738968CE0AE
S1131740DF011D928A95E9F7CA010E94BF02811147
S113175020C0E114F104F9F0980148E050E0BE0122
S11317606F5F7F4F87EF0E94D802811115C0BE01C1
S1131770675F7F4FCE0101960E94CF069801275FD5
S11317803F4FA701BE01675F7F4F8D2D0E94490720
S113179003C08FEF01C08FEF64960FB6F894DEBFDD
S11317A00FBECDBFDF91CF911F910F91FF90EF90AE
S11317B0DF900895611571058105910561F0DC01E3
S11317C0CB01EFE9FFE03197F1F700C0000001978A
S11317D0A109B109B1F708950E94741108950E94F6
S11317E0A7110895E1E4F1E086E7818381E0828333
S11317F08CEE9BE0948383838FEE9BE096838583BA
S11318008AED9BE090878783CF010E94EB040895C3
S113181081E491E00E944604E1E4F1E081E080ABE0
S113182086A787A782E081AB83E082ABBF018FE10B
S11318300E94460661E471E083E00E948B060895ED
S1131840CF93DF93EC0181E491E00E94460441E4EC
S113185051E0BE0187E00E94850BDF91CF9108958E
S11318608F929F92AF92BF92CF92DF92FF920F938B
S11318701F93CF93DF938C0184E791E00E94200CA7
S1131880F0908701F11083C00F2EF4E7CF2EF1E022
S1131890DF2EF02DF60164817581868197812AE01F
S11318A030E040E050E00E94D21EF80133832283EE
S11318B0F60180859185A285B3854C015D01072ED3
S11318C07AE0B694A794979487947A95D1F7702D7B
S11318D09401220F331FE401CC0FDD1FCC0FDD1F59
S11318E0CC0FDD1FC20FD31FBC01CD01737088273D
S11318F0992724E630E040E050E00E94B01EC20F79
S1131900D31FF801D183C08362817381072E000C39
S1131910880B990B0E94FA1B20E030E040E251E46E
S11319200E94571B23E333E948E853E40E94EB1A6F
S11319309B01AC0169E27CE58FEB9FE30E94571B9E
S11319409B01AC0160E070E080E89FE30E94EA1A2A
S113195028E539E348EA50EC0E94F31C4B015C0192
S1131960F60160817181828193810E94F81B20E0DD
S113197030E048EC52E40E94571BA50194010E94F8
S1131980861C0E94C91BF8017583648302C0FF246E
S1131990F3948F2DDF91CF911F910F91FF90DF90E2
S11319A0CF90BF90AF909F908F90089552985A987F
S11319B00895109284019FB7F894529AEFE2F1E1EE
S11319C03197F1F700C000005298FAE6FA95F1F762
S11319D000C04A992AC015C025E02A95F1F70000F5
S11319E0815091F04A99F8CF0CC0E5E0EA95F1F7FF
S11319F00000815081F04A9BF8CF0AC09FBF80E06D
S1131A0008954A9B0CC004C081E080938401F6CF02
S1131A109FBF81E0089582E080938401EFCFF5E0D9
S1131A20FA95F1F700008EEFE6CF25E02A95F1F75D
S1131A3000008EEFD7CF9FB7F8944A9B20C080E078
S1131A4025E02A95F1F700008F5F8F3F99F04A99BE
S1131A50F7CF16C0E5E0EA95F1F700008F5F8F3FFE
S1131A6091F04A9BF7CF14C09FBF80E0089581E0B6
S1131A709FBF089581E08093840180E0F9CF80E0E6
S1131A804A9BE8CF05C082E08093840180E0F0CFD8
S1131A90E7ECF0E03197F1F700C000004A9BE4CF97
S1131AA0E6CF0F931F93CF93DF93C8E0D0E00D2FC1
S1131AB0000F110BD02F0E941B0D8111D160C1505A
S1131AC0B1F78D2FDF91CF911F910F9108951F933F
S1131AD0CF93DF931FB7F8940E94D90C882329F180
S1131AE00E94510DC0E8D1E088830E94510D898382
S1131AF00E94510DC2E8D1E088830E94510D898370
S1131B000E94510D9091840191110FC01FBFE0E814
S1131B10F1E020819181920F2881920F2981920F07
S1131B2021E0981721F020E002C01FBF20E0822F9F
S1131B30DF91CF911F910895CF93DF93EC010E9421
S1131B40670D8823B1F0E0E8F1E0808190E0982F00
S1131B5088272181822B99838883E2E8F1E08081C0
S1131B6090E0982F88272181822B9B838A8380E0B1
S1131B7001C081E0DF91CF91089561E771E080E0D9
S1131B800E94D6192FEF87E893E1215080409040BE
S1131B90E1F700C000006AE671E080E00E94D61917
S1131BA02FEF87E893E1215080409040E1F700C097
S1131BB000000E94CF1908950F931F93CF93DF93D2
S1131BC0CDB7DEB7EC970FB6F894DEBF0FBECDBF2E
S1131BD0182F092F6CE571E080E00E94D6192FEFD1
S1131BE087E893E1215080409040E1F700C0000075
S1131BF00F931F9388E091E09F938F938E010F5F63
S1131C001F4F1F930F930E94761FB80180E80E9414
S1131C10D6192FEF87E893E1215080409040E1F7F7
S1131C2000C000008CE191E09F938F9389E291E0E2
S1131C309F938F93025E1F4F1F930F930E94761FF3
S1131C40B80180E80E94D6192FEF87E893E121506C
S1131C5080409040E1F700C000000E94CF190FB609
S1131C60F894DEBF0FBECDBFEC960FB6F894DEBF7E
S1131C700FBECDBFDF91CF911F910F910895EF92C9
S1131C80FF921F93CF93DF93CDB7DEB768970FB65C
S1131C90F894DEBF0FBECDBFFE01399688E0DF01A8
S1131CA01D928A95E9F780E090E89D878C8737C17B
S1131CB00E94291A298B3A8B4B8B5C8B6D8B7E8B04
S1131CC08F8B988FEA88FB88192FE22F220FFF0B46
S1131CD0E031F10508F023C1EC5CFF4F0C94F11ED8
S1131CE00E94CF1981E08987FB86EA86188A88E0FA
S1131CF0FE013996DE01119601900D928A95E1F765
S1131D0023C10E94CF1983E08987FB86EA86188A5B
S1131D1088E0FE013996DE01119601900D928A95B4
S1131D20E1F712C10E94CF1984E08987FB86EA8615
S1131D30188A88E0FE013996DE01119601900D9211
S1131D408A95E1F701C10E94CF1986E08987FB8655
S1131D50EA86188A88E0FE013996DE011196019020
S1131D600D928A95E1F7F0C00E94CF1987E0898728
S1131D70FB86EA86188A88E0FE013996DE01119610
S1131D8001900D928A95E1F7DFC00E94CF1988E097
S1131D908987FB86EA86188AFE013996DE01119648
S1131DA001900D928A95E1F7CFC08C899D899D871A
S1131DB08C878E899F899F878E870E94CF1989E09F
S1131DC08987FB86EA86188B88E0FE013996DE0156
S1131DD0119601900D928A95E1F7B6C00E94CF1931
S1131DE08AE08987FB86EA86188A88E0FE013996AC
S1131DF0DE01119601900D928A95E1F7A5C00E942B
S1131E00CF198BE08987FB86EA86188A88E0FE0171
S1131E103996DE01119601900D928A95E1F794C0EE
S1131E200E94CF198CE08987FB86EA86188A88E0AD
S1131E30FE013996DE01119601900D928A95E1F723
S1131E4083C00E94CF198DE08987FB86EA86188AB1
S1131E5088E0FE013996DE01119601900D928A9573
S1131E60E1F772C00E94CF198EE08987FB86EA866B
S1131E70188A88E0FE013996DE01119601900D92D0
S1131E808A95E1F761C08C899D899D878C878E89AD
S1131E909F899F878E870E94CF198FE08987FB8651
S1131EA0EA86188B88E0FE013996DE0111960190CE
S1131EB00D928A95E1F748C00E94CF1980E1898785
S1131EC0FB86EA86188A88E0FE013996DE011196BF
S1131ED001900D928A95E1F737C00E94CF1985E0F1
S1131EE08987FB86EA86188A88E0FE013996DE0136
S1131EF0119601900D928A95E1F726C00E94CF19A0
S1131F0082E08987FB86EA86188A88E0FE01399692
S1131F10DE01119601900D928A95E1F715C080912A
S1131F2040018111C5CE0E94CF1919868FEF9FEF12
S1131F309B878A87188A88E0FE013996DE0111960C
S1131F4001900D928A95E1F729813A814B815C8158
S1131F506D817E818F81988568960FB6F894DEBF77
S1131F600FBECDBFDF91CF911F91FF90EF900895E9
S1131F70CF92DF92EF920F931F93CF93DF93CDB75E
S1131F80DEB769970FB6F894DEBF0FBECDBF6B0105
S1131F90E82E122F032F4423B9F0CB010E94401FD7
S1131FA09F938F930F931F9389E491E09F938F9353
S1131FB0CE0101969F938F930E94981F0FB6F894B9
S1131FC0DEBF0FBECDBF1AC0FB0101900020E9F7B0
S1131FD03197E61BF70BFF93EF933F932F9386E321
S1131FE091E09F938F93CE0101969F938F930E94CC
S1131FF0981F0FB6F894DEBF0FBECDBFBE016F5F52
S11320007F4F80E80E94D6199FEF27E883E1915023
S113201020408040E1F700C000008E2DB6010E94F0
S1132020D6199FEF27E883E1915020408040E1F7E3
S113203000C000000E94CF1969960FB6F894DEBF65
S11320400FBECDBFDF91CF911F910F91EF90DF9025
S1132050CF9008959C0140E050E060E87EE380E08A
S113206090E00E94B01EDA01C9014097A109B109AC
S1132070B695A795979587959C018F3F910561F03B
S113208058F080E08F5F36952795369527952F3F3A
S1132090310509F0B8F701C080E0E9EBF0E0908188
S11320A09370892B80832093B800089584E48093EF
S11320B0BC0088E190E00E942A100895ECEBF0E067
S11320C084EA80838FEF9FEF90938601809385014C
S11320D0808188233CF411C0019740F482E080930E
S11320E087010DC08EEF9FEFECEBF0E0909386013B
S11320F080938501208122237CF7109287018091AF
S1132100B900887F883041F08091B900887F8031A0
S113211019F081E080938701089580FF37C0809390
S1132120BB00ECEBF0E084E880838FEF9FEF9093AB
S11321308601809385018081882344F430E414C0AF
S1132140019758F482E08093870110C030E401C005
S113215038E18EEF9FEFECEBF0E0909386018093F3
S113216085012081222364F7109287018091B900B0
S1132170887F90E0232F30E08217930721F084E0DA
S11321808093870108951092870108958093BB007E
S1132190ECEBF0E084E880838FEF9FEF909386016F
S11321A080938501808188239CF638E1DDCFCF932D
S11321B0C82F0E945E1080918701811103C08C2F6B
S11321C00E948D10CF9108958093BB00ECEBF0E05A
S11321D084E880838FEF9FEF90938601809385013D
S11321E0808188233CF411C0019740F482E08093FD
S11321F087010DC08EEF9FEFECEBF0E0909386012A
S113220080938501208122237CF71092870180919D
S1132210B900887F883219F084E08093870108959B
S1132220ECEBF0E084E880838FEF9FEF90938601DE
S113223080938501808188233CF411C0019740F488
S113224082E0809387010DC08EEF9FEFECEBF0E00E
S11322509093860180938501208122237CF710923C
S113226087018091B900887F883519F083E08093D5
S113227087018091BB000895ECEBF0E084EC80834F
S11322808FEF9FEF9093860180938501808188234F
S11322903CF411C0019740F482E0809387010DC0A3
S11322A08EEF9FEFECEBF0E0909386018093850135
S11322B0208122237CF7109287018091B900887FC6
S11322C0803519F084E0809387018091BB000895E4
S11322D0CF93C62F880F0E94D7108C2F0E94E41032
S11322E080918701CF910895CF92DF92EF92FF9270
S11322F00F931F93CF93DF93C82F6A0179010E9434
S113230068118C2F880F81600E94D71081E0E81A31
S1132310F10859F0E70186010E943C11F80181930C
S11323208F012197C9F7CE0CDF1C0E941011F60112
S1132330808384E98093BC0080918701DF91CF91F1
S11323401F910F91FF90EF90DF90CF9008950F931E
S11323501F93CF93DF938A01E9010E9468112097AC
S113236039F0F80181918F010E94E4102197C9F797
S113237084E98093BC0080918701DF91CF911F9104
S11323800F9108951F920F920FB60F9211248F93FD
S1132390809138018A3031F481E080933A011092BF
S11323A0380103C08F5F809338018F910F900FBE67
S11323B00F901F90189582E080936F0089E09DE351
S11323C090938900809388008DE080938100089524
S11323D081E080937E0080E480937C00EAE7F0E073
S11323E08FE8808380818066808308951092C50081
S11323F082E28093C400E0ECF0E08081826080831C
S113240008950E94F61188ED8093C10086E08093C0
S1132410C20008950F931F93CF93FC0163817481CD
S11324206115F0E87F0719F443C0CF5F02C08C0147
S1132430C1E08FEF8C0F19F0813039F00DC0CB0162
S113244001978F3F9105B8F027C0CB018C599F4F5E
S1132450893C910550F524C0EC2FF0E0EE0FFF1FEE
S1132460E00FF11F63817481611520E8720701F1A7
S1132470C230D8F21DC082E090E00E949725EC2F74
S1132480F0E0EE0FFF1FE00FF11F6381748161150F
S113249080E8780751F60CC082E0F801878308C011
S11324A083E090E00E94972503C082E0F8018783CF
S11324B0CF911F910F9108950F931F93CF93FC0118
S11324C0638174816115F0E87F0719F430C0CF5F30
S11324D002C08C01C1E0C13039F4CB018C599F4F4B
S11324E0893C910508F50FC0EC2FF0E0EE0FFF1FBB
S11324F0E00FF11F63817481611520E87207B9F060
S1132500C230A8F4E4CF80E090E00E949725EC2F3D
S1132510F0E0EE0FFF1FE00FF11F6381748161157E
S113252080E87807A1F603C082E0F8018783CF91A1
S11325301F910F9108958F3F2FEF920739F09C015F
S113254041E067E974E080E00E94B80F08958F3F8E
S11325502FEF920781F09C01662339F041E067E890
S113256074E080E00E94B80F089541E06AE774E0E7
S113257080E00E94B80F0895EF92FF920F931F938B
S1132580CF93DF93CDB7DEB764970FB6F894DEBF71
S11325900FBECDBF8F3F2FEF920709F443C08C01CC
S11325A0E8E8F1E0408151810190F081E02D9A0149
S11325B0ADECBCEC0E94F71E969587959695879591
S11325C0969587959C01220F331F880F991F880FBA
S11325D0991F880F991F820F931F481B590B5F93F4
S11325E04F939F010E94F71E969587959695879520
S11325F0969587959F938F9386E694E09F938F9308
S1132600CE0101967C019F938F930E94981FB7017E
S113261080E8980140E00E94B80F0FB6F894DEBF3E
S11326200FBECDBF64960FB6F894DEBF0FBECDBF0C
S1132630DF91CF911F910F91FF90EF9008950F9329
S11326401F93CF93DF93CDB7DEB764970FB6F8949B
S1132650DEBF0FBECDBF8F3F2FEF920709F468C0D6
S11326608C0180918A0190918B010996099750F011
S113267034C0BE016F5F7F4F80E8980140E00E9444
S1132680B80F56C0E8E8F1E0828193810280F381BB
S1132690E02D6AE070E00E949C1E9C01992324F4C2
S11326A022273327281B390B3F932F93CF016AE04E
S11326B070E00E949C1E7F936F9380E594E09F934B
S11326C08F93CE0101969F938F930E94981F0FB60C
S11326D0F894DEBF0FBECDBFCCCFE8E8F1E0828135
S11326E093810280F381E02D6AE070E00E949C1ED9
S11326F09C01992324F422273327281B390B3F9369
S11327002F93CF016AE070E00E949C1E7F936F9329
S11327108BE394E09F938F93CE0101969F938F93C5
S11327200E94981F0FB6F894DEBF0FBECDBFA1CF95
S113273064960FB6F894DEBF0FBECDBFDF91CF9184
S11327401F910F910895EF92FF920F931F93CF93D0
S1132750DF93CDB7DEB769970FB6F894DEBF0FBE2F
S1132760CDBF8F3F2FEF9207F1F08C0180918C0148
S113277090918D019F938F9388E294E09F938F9320
S1132780CE0101967C019F938F930E94981FB701FD
S113279080E8980140E00E94B80F0F900F900F90CE
S11327A00F900F900F9069960FB6F894DEBF0FBE8E
S11327B0CDBFDF91CF911F910F91FF90EF900895BE
S11327C00F931F93CF93DF93CDB7DEB76E970FB6FA
S11327D0F894DEBF0FBECDBF8F3F2FEF9207D1F12C
S11327E08C0180918E018823B9F080918F019091A2
S11327F090019F938F9386E194E09F938F93CE01F2
S113280001969F938F930E94981F0F900F900F90A3
S11328100F900F900F9016C080918F0190919001AE
S11328209F938F9385E094E09F938F93CE010196BD
S11328309F938F930E94981F0F900F900F900F906B
S11328400F900F90BE016F5F7F4F80E8980140E0CA
S11328500E94B80F6E960FB6F894DEBF0FBECDBFC0
S1132860DF91CF911F910F910895EF92FF920F93F3
S11328701F93CF93DF93CDB7DEB764970FB6F89469
S1132880DEBF0FBECDBF8F3F2FEF9207F1F08C015B
S113289080919101909192019F938F9381EF93E0A6
S11328A09F938F93CE0101967C019F938F930E94F7
S11328B0981FB70180E8980140E00E94B80F0F907C
S11328C00F900F900F900F900F9064960FB6F8949E
S11328D0DEBF0FBECDBFDF91CF911F910F91FF904F
S11328E0EF900895CF92DF92EF92FF920F931F9390
S11328F0CF93DF93CDB7DEB7C956D1090FB6F8949D
S1132900DEBF0FBECDBF8F3F2FEF920709F4F8C093
S113291020918E01222369F029E535E4A7963FAF83
S11329202EAFA79723E530E0A9963FAF2EAFA99726
S113293009C02EE43FE4A7963FAF2EAFA797A89611
S11329401FAEA8978C0180918A0190918B01099602
S1132950099750F06FC0BE016F5F7F4F80E8980108
S113296040E00E94B80FCCC0E8E8F1E064817581D2
S1132970218532858781908540815181C080D180B5
S1132980E280F3800280F381E02D7F936F933F9385
S11329902F939F938F93CE018B599F4F9F938F9328
S11329A09A01ADECBCEC0E94F71E9695879596951E
S11329B08795969587959C01220F331F880F991F41
S11329C0880F991F880F991F820F931F481B590B5B
S11329D05F934F9396010E94F71E9695879596955F
S11329E08795969587959F938F93C7016AE070E0CA
S11329F00E949C1E9C01992324F422273327281B20
S1132A00390B3F932F93CF016AE070E00E949C1E24
S1132A107F936F9383E993E09F938F93CE01019605
S1132A209F938F930E94981F0FB6F894DEBF0FBE3A
S1132A30CDBF91CFE8E8F1E06481758121853285CD
S1132A408781908540815181C080D180E280F3806C
S1132A500280F381E02D7F936F933F932F939F9395
S1132A608F93CE018B599F4F9F938F939A01ADEC17
S1132A70BCEC0E94F71E969587959695879596953A
S1132A8087959C01220F331F880F991F880F991F68
S1132A90880F991F820F931F481B590B5F934F9305
S1132AA096010E94F71E969587959695879596951B
S1132AB087959F938F93C7016AE070E00E949C1EE4
S1132AC09C01992324F422273327281B390B3F9395
S1132AD02F93CF016AE070E00E949C1E7F936F9356
S1132AE086E393E09F938F93CE0101969F938F93F8
S1132AF00E94981F0FB6F894DEBF0FBECDBF2BCF38
S1132B00C759DF4F0FB6F894DEBF0FBECDBFDF91BC
S1132B10CF911F910F91FF90EF90DF90CF90089588
S1132B208F3F2FEF9207C9F09C01623039F441E0E6
S1132B3066EF72E080E00E94B80F0895613039F4C6
S1132B4041E067EC72E080E00E94B80F089541E034
S1132B5063EB72E080E00E94B80F0895EF92FF9259
S1132B600F931F93CF93DF93CDB7DEB7E4970FB6E0
S1132B70F894DEBF0FBECDBF8F3F2FEF920749F110
S1132B808C0142E050E062E070E0CE01C3960E9406
S1132B907F258CA9282F082E000C330B3F938F938D
S1132BA08BA91F928F938EE892E09F938F93CE010F
S1132BB001967C019F938F930E94981FB70180E830
S1132BC0980140E00E94B80F0FB6F894DEBF0FBE24
S1132BD0CDBFE4960FB6F894DEBF0FBECDBFDF9134
S1132BE0CF911F910F91FF90EF900895CF93DF93B2
S1132BF08F3F2FEF920751F1EC0181E090E00E94AA
S1132C008F25811108C09E0141E06DE772E080E0EC
S1132C100E94B80F1BC0813041F49E0141E06DE673
S1132C2072E080E00E94B80F11C0823041F49E012E
S1132C3041E06BE572E080E00E94B80F07C09E019E
S1132C4041E06CE472E080E00E94B80FDF91CF9124
S1132C5008956F3F9FEF790781F09B01882339F036
S1132C6041E069E372E080E00E94B80F089541E01A
S1132C7065E272E080E00E94B80F08958F3F2FEF65
S1132C809207C9F09C01623039F441E060EE71E0D2
S1132C9080E00E94B80F0895613039F441E06EEA93
S1132CA071E080E00E94B80F089541E067E971E0A7
S1132CB080E00E94B80F0895EF92FF920F931F9344
S1132CC0CF93DF93CDB7DEB7A3970FB6F894DEBFEB
S1132CD00FBECDBF8F3F2FEF920711F18C0180E023
S1132CE090E00E948F25282F082E000C330B3F9371
S1132CF08F938AE791E09F938F93CE0101967C0195
S1132D009F938F930E94981FB70180E8980140E039
S1132D100E94B80F0F900F900F900F900F900F908C
S1132D20A3960FB6F894DEBF0FBECDBFDF91CF914F
S1132D301F910F91FF90EF900895CF93DF93CDB73C
S1132D40DEB728970FB6F894DEBF0FBECDBF87E27B
S1132D5084B90E9475180E94D60C0E94DB110E944F
S1132D60E8110E9401120E9456100E94F20B0E9468
S1132D70080C78940E94BD0D00E010E09091390198
S1132D80992379F02FEF83ED90E321508040904018
S1132D90E1F700C0000082ED94E00E94DC0D109287
S1132DA0390190913A019923E1F088E891E00E9479
S1132DB09C0D88E891E00E94300C182F88E891E07F
S1132DC00E94FE17182B88E891E00E94781868E8A2
S1132DD071E0802F0E94A318082F0E94E51810921A
S1132DE03A0190914001992349F22FEF87E893E14A
S1132DF0215080409040E1F700C000000E943F0E47
S1132E0029833A834B835C836D837E838F83988786
S1132E10422F50E0FA013197E031F10508F0AECFCE
S1132E20EC5BFF4F0C94F11E8A819B810E949B12E4
S1132E30A5CF612F8A819B810E94A7129FCF8A818F
S1132E409B810E941F139ACF8A819B810E94BC128E
S1132E5095CF8A819B810E94A31390CF8A819B8105
S1132E600E94E0138BCF8A819B810E94351486CF08
S1132E708A819B810E94721481CFCE0101960E94A7
S1132E800A1268858A819B810E94901577CF8A8176
S1132E909B810E94AE1572CF60E081E090E00E94B9
S1132EA0A9258A819B810E94F61568CF61E081E0A3
S1132EB090E00E94A9258A819B810E94F6155ECF2D
S1132EC062E081E090E00E94A9258A819B810E94B2
S1132ED0F61554CF6A817B81802F0E9429164ECF2C
S1132EE0CE0101960E945C1268858A819B810E94B2
S1132EF03E1644CF8A819B810E945C163FCFCF93BC
S1132F00DF93C82F84EB0E94D71086E08C0F0E94B9
S1132F10E41085EB0E94D7100E943C11C82F0E9438
S1132F203C11D82F0E94101184E98093BC00ECEB73
S1132F30F0E0808184FDFDCF8091870181110EC076
S1132F406C2F70E07D2BCB01770FAA0BBB0BBC0160
S1132F50CD01660F771F881F991F03C06FEF7FEFA6
S1132F60CB01DF91CF9108958F929F92AF92BF9240
S1132F70CF92DF92EF92FF92CF93DF9300D0CDB741
S1132F80DEB7621773078407950730F149015A01C8
S1132F906B017C0142E050E062E070E0CE010196FA
S1132FA00E947F25C701B601681979098A099B091E
S1132FB0298130E040E050E00E94B01E8A81082E52
S1132FC0000C990B280F391F253631053CF43323A7
S1132FD03CF084E6821B05C084E603C080E001C0A7
S1132FE084E60F900F90DF91CF91FF90EF90DF90E8
S1132FF0CF90BF90AF909F908F900895CF92DF9223
S1133000EF92FF92CF93DF93EC0180E00E947F1751
S11330106B017C0181E00E947F172FEFC216D2065C
S1133020E206F20689F06F3F2FEF720782079207DC
S113303069F09B01AC01C701B6010E94B41790E08E
S11330409A87898780E003C081E001C081E0DF9135
S1133050CF91FF90EF90DF90CF9008951F920F9241
S11330600FB60F9211244F935F936F937F938F93B7
S11330709F93809178009091790040913C01509108
S11330803D0160913E0170913F01480F591F611D40
S1133090711D40933C0150933D0160933E01709338
S11330A03F0180913B018F5F80933B01803891F415
S11330B0409393015093940160939501709396010A
S11330C010923C0110923D0110923E0110923F017A
S11330D010923B019F918F917F916F915F914F91DE
S11330E00F900FBE0F901F9018955398549A0895FF
S11330F0CF93FC0189B183FB992790F981E089275B
S11331008683CFB7F8942091930130919401409134
S1133110950150919601A4E6B0E00E94061FAB0110
S1133120BC01032E31E176956795579547953A95FD
S1133130D1F7302D84E690E0841B950B908787832C
S1133140CFBFCF9108950F931F93CF93DF93D82FC1
S11331508B0180E090E00E948F25C82F81E090E0F1
S11331600E948F25813031F018F0823029F027C079
S1133170D0E025C0D1E023C08C2FCC0F990B9C014B
S1133180220F331F880F991F880F991F880F991FCB
S1133190820F931FDD2351F0F801228133810596BC
S11331A0D1E0281739075CF0D0E009C0F80122818A
S11331B033810597D1E0281739070CF0D0E08D2F23
S11331C0DF91CF911F910F910895882311F05C9A9C
S11331D008955C980895FC01E05AFE4F81E0208137
S11331E03181232B09F080E00895CF939C01C62FF1
S11331F04FB7F894FC01E05AFE4F0190F081E02DA6
S1133200EE3581E0F80719F44FBF80E017C0D9010B
S1133210A25ABE4F8D919C918E0F9F1F6EE571E057
S11332200E94881ED901A80FB91FCC93D901A05AB6
S1133230BE4F3196ED93FC934FBF81E0CF9108953B
S11332400F931F93CF93DF939C01DFB7F894FC0196
S1133250E05AFE4F0190F081E02D309719F4DFBF62
S113326080E01BC08C01025A1E4FD8018D919C91A5
S1133270D901A80FB91FCC9101966EE571E00E94A7
S1133280881ED80111969C938E931296AF014150DB
S113329051094D935C93DFBF8C2FDF91CF911F9128
S11332A00F9108950F931F93CF93DF93FC01E05A7E
S11332B0FE4F20813181232B49F08C01EF01C8019D
S11332C00E94201928813981232BC9F7DF91CF91DE
S11332D01F910F9108951F920F920FB60F92112410
S11332E02F933F934F935F936F937F938F939F930A
S11332F0AF93BF93EF93FF936091C6006D3031F4A9
S1133300809140018F5F8093400160E087E991E004
S11333100E94F518FF91EF91BF91AF919F918F910A
S11333207F916F915F914F913F912F910F900FBEBD
S11333300F901F9018951F920F920FB60F921124A1
S11333402F933F934F935F936F937F938F939F93A9
S1133350AF93BF93EF93FF938AEF92E00E94EB1831
S113336081110AC081E08093F9028AEF92E00E9401
S113337020198093C60002C01092F902FF91EF91C8
S1133380BF91AF919F918F917F916F915F914F9179
S11333903F912F910F900FBE0F901F90189587E9C2
S11333A091E00E945219109240010895CF92DF9249
S11333B0EF92CF93DF936B01E82EFB016491E7FC5E
S11333C060816623A1F0C1E0D0E08AEF92E00E9420
S11333D0F518811101C0CD2F8FEFC81AD80AE80A59
S11333E0F6016491E7FC60816111EFCF01C0C1E097
S11333F0F8948091F902811102C00E949B1978947B
S11334008C2FDF91CF91EF90DF90CF9008950F93A1
S11334101F93CF93DF93EC018C01025E1F4F87E96A
S113342091E00E94EB1881110CC087E991E00E94A1
S113343020198993882339F0C017D10781F781E0D7
S113344003C080E001C081E0DF91CF911F910F9113
S11334500895CF92DF92EF92FF920F931F93CF9331
S1133460DF93CDB7DEB7AE970FB6F894DEBF0FBECD
S1133470CDBF88E0E0E0F1E0DE01199601900D9205
S11334808A95E1F7FE0171968EE1DF011D928A951E
S1133490E9F71FB7F894909140019150909340013F
S11334A0CF010E94071A81110BC088E0FE013996F2
S11334B0DE01119601900D928A95E1F71FBF73C04A
S11334C01FBF64EB74E0CE0141960E94371F892B25
S11334D019F481E0809339010F2EF0ECEF2EF4E023
S11334E0FF2EF02D10E0F70132967F01329765919F
S11334F07591CE0141960E94491F892B09F446C05B
S11335001987CE010A969F938F9383EA94E09F9341
S11335108F938E010F5E1F4F1F930F930E94BA1F4C
S113352060E270E0C8010E94631F0F900F900F903B
S11335300F900F900F900097F9F0055011096E014C
S1133540F0E1CF0ED11C03C0C016D10699F07C0166
S11335502FEFE21AF20AC7010E94191FD8018D93B6
S11335609D938D0160E270E0C7010E94631F009784
S113357059F702C081E0888B88E0FE013996DE01AC
S1133580119601900D928A95E1F70DC01F5F1031DD
S113359009F0A9CF88E0FE013996DE011196019069
S11335A00D928A95E1F729813A814B815C816D8185
S11335B07E818F819885AE960FB6F894DEBF0FBEDC
S11335C0CDBFDF91CF911F910F91FF90EF90DF90CE
S11335D0CF9008955058BB27AA270E94021B0C9431
S11335E04C1C0E943E1C38F00E94451C20F039F40B
S11335F09F3F19F426F40C943B1C0EF4E095E7FB72
S11336000C94351CE92F0E945D1C58F3BA1762070D
S113361073078407950720F079F4A6F50C947F1CB2
S11336200EF4E0950B2EBA2FA02D0B01B9019001D9
S11336300C01CA01A0011124FF27591B99F0593F1D
S113364050F4503E68F11A16F040A22F232F342F65
S11336504427585FF3CF469537952795A795F040B3
S11336605395C9F77EF41F16BA0B620B730B840BC8
S1133670BAF09150A1F0FF0FBB1F661F771F881F80
S1133680C2F70EC0BA0F621F731F841F48F48795D8
S113369077956795B795F7959E3F08F0B0CF9395CA
S11336A0880F08F09927EE0F9795879508950E9443
S11336B06B1B0C944C1C0E94451C58F00E943E1C31
S11336C040F029F45F3F29F00C94351C51110C94FF
S11336D0801C0C943B1C0E945D1C68F39923B1F37D
S11336E0552391F3951B550BBB27AA276217730724
S11336F0840738F09F5F5F4F220F331F441FAA1FB8
S1133700A9F335D00E2E3AF0E0E832D09150504073
S1133710E695001CCAF72BD0FE2F29D0660F771F21
S1133720881FBB1F261737074807AB07B0E809F007
S1133730BB0B802DBF01FF2793585F4F3AF09E3F8C
S1133740510578F00C94351C0C94801C5F3FE4F315
S1133750983ED4F3869577956795B795F7959F5FCF
S1133760C9F7880F911D9695879597F90895E1E01B
S1133770660F771F881FBB1F621773078407BA077A
S113378020F0621B730B840BBA0BEE1F88F7E095D5
S113379008950E94651C88F09F5798F0B92F9927C7
S11337A0B751B0F0E1F0660F771F881F991F1AF028
S11337B0BA95C9F714C0B13091F00E947F1CB1E0F2
S11337C008950C947F1C672F782F8827B85F39F0F1
S11337D0B93FCCF3869577956795B395D9F73EF4C1
S11337E090958095709561957F4F8F4F9F4F089569
S11337F0E89409C097FB3EF4909580957095619587
S11338007F4F8F4F9F4F9923A9F0F92F96E9BB273C
S11338109395F695879577956795B795F111F8CFB8
S1133820FAF4BB0F11F460FF1BC06F5F7F4F8F4F23
S11338309F4F16C0882311F096E911C0772321F019
S11338409EE8872F762F05C0662371F096E8862FB1
S113385070E060E02AF09A95660F771F881FDAF708
S1133860880F9695879597F9089597F99F6780E84B
S113387070E060E008959FEF80EC089500240A94BE
S11338801616170618060906089500240A94121637
S11338901306140605060895092E0394000C11F46A
S11338A0882352F0BB0F40F4BF2B11F460FF04C017
S11338B06F5F7F4F8F4F9F4F089557FD9058440F70
S11338C0551F59F05F3F71F04795880F97FB991F7B
S11338D061F09F3F79F08795089512161306140638
S11338E0551FF2CF4695F1DF08C0161617061806C5
S11338F0991FF1CF86957105610508940895E894A0
S1133900BB2766277727CB0197F908950E94991C56
S11339100C944C1C0E943E1C38F00E94451C20F064
S1133920952311F00C94351C0C943B1C11240C941D
S1133930801C0E945D1C70F3959FC1F3950F50E0AD
S1133940551F629FF001729FBB27F00DB11D639F4D
S1133950AA27F00DB11DAA1F649F6627B00DA11DF3
S1133960661F829F2227B00DA11D621F739FB00D99
S1133970A11D621F839FA00D611D221F749F332709
S1133980A00D611D231F849F600D211D822F762FA2
S11339906A2F11249F5750409AF0F1F088234AF07F
S11339A0EE0FFF1FBB1F661F771F881F91505040EB
S11339B0A9F79E3F510580F00C94351C0C94801C93
S11339C05F3FE4F3983ED4F3869577956795B79572
S11339D0F795E7959F5FC1F7FE2B880F911D96958C
S11339E0879597F90895FA01EE0FFF1F3096210588
S11339F03105A1F16115710561F48038BFE39B07BE
S1133A0049F168949038810561F08038BFEF9B07D5
S1133A1041F099234AF5FF3FE1053105210519F1EC
S1133A20E8940894E795D901AA2329F4AB2FBE2F73
S1133A30F85FD0F310C0FF5F70F4A695E0F7F73994
S1133A4050F019F0FF3A38F49F779F930DD00F9000
S1133A5007FC9058089546F00C943B1C60E070E01D
S1133A6080E89FE308954FE79F775F934F933F93D9
S1133A702F930E94EE1D2F913F914F915F910E94D1
S1133A80861C0C944B1D29F416F00C94351C0C94D4
S1133A907F1C0C943B1C0E94651CA8F39638A0F76D
S1133AA007F80F92E8942BE33AEA48EB5FE70E94A9
S1133AB09C1C0F920F920F924DB75EB70F920E940B
S1133AC0361EE8EAF0E00E947D1D4F915F91EF9170
S1133AD0FF91E595EE1FFF1F49F0FE57E06844276C
S1133AE0EE0F441FFA95E1F74195550B0E94B01D66
S1133AF00F9007FE0C94A41D0895DF93CF931F939A
S1133B000F93FF92EF92DF927B018C01689406C0C1
S1133B10DA2EEF010E94991CFE01E894A5912591EB
S1133B20359145915591A6F3EF010E94021BFE01C8
S1133B309701A801DA9469F7DF90EF90FF900F9155
S1133B401F91CF91DF9108959B01AC0160E070E07B
S1133B5080E89FE30C94571B0C94351C0C946A1E4C
S1133B600E94651CD8F39923C9F3940F511DA3F344
S1133B709150504094F059F0882332F0660F771F2B
S1133B80881F91505040C1F79E3F51052CF7880F74
S1133B90911D9695879597F908955F3FACF0983EEF
S1133BA09CF0BB27869577956795B79508F4B16027
S1133BB09395C1F7BB0F58F711F460FFE8CF6F5F1F
S1133BC07F4F8F4F9F4FE3CF0C94801C16F00C94C3
S1133BD06A1E0C943B1C68940C94351C0E94651C52
S1133BE0A8F39923C1F3AEF3DF93CF931F930F93FD
S1133BF0FF92C92FDD2788232AF02197660F771FAC
S1133C00881FDAF720E030E040E85FEB9FE3883973
S1133C1020F0803E38F021968F770E94EB1AE0ED79
S1133C20F0E004C00E94EB1AEDEFF0E00E947D1D6D
S1133C308B01BE01EC01FB2E6F5771097595771F3F
S1133C40880B990B0E94FA1B28E132E741E35FE3FA
S1133C500E94991CAF2D9801AE01FF900F911F9106
S1133C60CF91DF910E94021B0C944C1CFA01DC01E1
S1133C70AA0FBB1F9B01AC01BF5728F4222733278F
S1133C804427507820C0B75190F4AB2F00244695B8
S1133C9037952795011CA395D2F3002071F0220FCC
S1133CA0331F441FB395DAF30ED00C94EA1A613033
S1133CB07105A0E88A07B94630F49B01AC01662778
S1133CC0772788279078309621F0208331834283A8
S1133CD0538308959F3F31F0915020F48795779551
S1133CE06795B795880F911D9695879597F90895CF
S1133CF0DB018F939F930E94061FBF91AF91A29FF8
S1133D00800D911DA39F900DB29F900D11240895D5
S1133D10AA1BBB1B51E107C0AA1FBB1FA617B707ED
S1133D2010F0A61BB70B881F991F5A95A9F7809509
S1133D309095BC01CD01089597FB072E16F40094CD
S1133D4007D077FD09D00E94881E07FC05D03EF4F9
S1133D50909581959F4F0895709561957F4F089533
S1133D60A1E21A2EAA1BBB1BFD010DC0AA1FBB1F7B
S1133D70EE1FFF1FA217B307E407F50720F0A21BED
S1133D80B30BE40BF50B661F771F881F991F1A945A
S1133D9069F760957095809590959B01AC01BD0184
S1133DA0CF010895052E97FB1EF400940E94E91E8E
S1133DB057FD07D00E94B01E07FC03D04EF40C94AC
S1133DC0E91E50954095309521953F4F4F4F5F4FD9
S1133DD0089590958095709561957F4F8F4F9F4F73
S1133DE00895EE0FFF1F0590F491E02D0994A29F12
S1133DF0B001B39FC001A39F700D811D1124911DBB
S1133E00B29F700D811D1124911D08950E94F71E0B
S1133E10A59F900DB49F900DA49F800D911D11241A
S1133E200895B7FF0C94061F0E94061F821B930B74
S1133E300895FC0188279927E89421912032E9F319
S1133E40293010F02E30C8F32B3241F02D3239F4E2
S1133E50689404C00E946E1F820F911D219120530B
S1133E602A30C0F31EF4909581959F4F0895FB016D
S1133E70DC018D91059080190110D9F3990B0895F7
S1133E80FC0105900020E9F7809590958E0F9F1F07
S1133E900895FB0155915523A9F0BF01DC014D9113
S1133EA045174111E1F759F4CD010590002049F07F
S1133EB04D9140154111C9F3FB014111EFCF81E050
S1133EC090E001970895FC018191861721F08823E1
S1133ED0D9F7992708953197CF0108957AE0979FEC
S1133EE0902D879F802D910D11240895AEE0B0E0B0
S1133EF0ECE7FFE10C94C5250D891E8986E08C83CF
S1133F001A8309838FEF9FE79E838D83AE01475EFB
S1133F105F4F6F89788DCE0101960E94D31FEF8188
S1133F20F885E00FF11F10822E96E4E00C94E12551
S1133F30AEE0B0E0EEE9FFE10C94C5250D891E89E1
S1133F408EE08C831A8309838FEF9FE79E838D8392
S1133F50AE01475E5F4F6F89788DCE0101960E9456
S1133F60D31FEF81F885E00FF11F10822E96E4E055
S1133F700C94E125AEE0B0E0E0ECFFE10C94C72541
S1133F808DE08C838B899C899A838983AE01495EF9
S1133F905F4F6D897E89CE0101960E9450232E9633
S1133FA0E2E00C94E325ABE0B0E0E9EDFFE10C9432
S1133FB0B7256C017B018A01FC011782168283817B
S1133FC081FFCCC1CE0101963C01F6019381F7013A
S1133FD093FD859193FF81917F01882309F4BAC1F0
S1133FE0853239F493FD859193FF81917F01853268
S1133FF029F4B60190E00E94C924E7CF912C212C2A
S1134000312CFFE1F315D8F08B3279F038F480329B
S113401079F08332A1F4232D20611DC08D3261F02B
S1134020803369F4232D216016C0832D8260382EDD
S1134030E32DE4603E2E2AC0F32DF8601DC037FC4A
S11340402DC020ED280F2A3040F08E32B9F436FC12
S113405081C1232D2064322E19C036FE06C08AE0A9
S1134060989E200D1124922E11C0EAE02E9E200D60
S11340701124222EF32DF0623F2E08C08C3621F439
S1134080832D8068382E02C0883641F4F70193FDF1
S1134090859193FF81917F018111B3CF982F9F7DEB
S11340A09554933028F40C5F1F4F9FE399830DC000
S11340B0833631F0833771F0833509F059C021C05C
S11340C0F801808189830E5F1F4F88248394912C8B
S11340D0530113C02801F2E04F0E511CF801A080D7
S11340E0B18036FE03C0692D70E002C06FEF7FEF30
S11340F0C5010E9480244C018201F32DFF773F2EDD
S113410016C0280122E0420E511CF801A080B180A3
S113411036FE03C0692D70E002C06FEF7FEFC5016A
S11341200E9475244C01F32DF0683F2E820133FC6C
S11341301BC0822D90E088169906B0F4B60180E287
S113414090E00E94C9242A94F4CFF50137FC8591AC
S113415037FE81915F01B60190E00E94C9242110CD
S11341602A9421E0821A91088114910471F7E8C01D
S1134170843611F0893641F5F80137FE07C06081B5
S11341807181828193810C5F1F4F08C060817181AE
S1134190072E000C880B990B0E5F1F4FF32DFF7633
S11341A03F2E97FF09C090958095709561957F4F3C
S11341B08F4F9F4FF0683F2E2AE030E0A3010E940A
S11341C01E25882E861845C0853731F4232D2F7E71
S11341D0B22E2AE030E025C0932D997FB92E8F3678
S11341E0C1F018F4883579F0B5C0803719F08837F4
S11341F021F0B0C0E92FE061BE2EB4FE0DC0FB2D4E
S1134200F460BF2E09C034FE0AC0292F2660B22EE6
S113421006C028E030E005C020E130E002C020E123
S113422032E0F801B7FE07C0608171818281938119
S11342300C5F1F4F06C06081718180E090E00E5FCB
S11342401F4FA3010E941E25882E8618FB2DFF7781
S11342503F2E36FE0DC0232D2E7FA22E891458F436
S113426034FE0BC032FC09C0832D8E7EA82E05C0FF
S1134270B82CA32C03C0B82C01C0B92CA4FE0FC0C9
S1134280FE01E80DF11D8081803321F49A2D997E81
S1134290A92E09C0A2FE06C0B394B39404C08A2D0B
S11342A0867809F0B394A3FC11C0A0FE06C0B21432
S11342B088F4280C922C9B180EC0B21460F4B6013A
S11342C080E290E00E94C924B394F7CFB21418F4AA
S11342D02B1802C0982C212CA4FE10C0B60180E338
S11342E090E00E94C924A2FE17C0A1FC03C088E785
S11342F090E002C088E590E0B6010CC08A2D867873
S113430059F0A1FE02C08BE201C080E2A7FC8DE25D
S1134310B60190E00E94C924891438F4B60180E300
S113432090E00E94C9249A94F7CF8A94F301E80D8F
S1134330F11D8081B60190E00E94C9248110F5CF5F
S1134340222009F442CEB60180E290E00E94C92402
S11343502A94F6CFF6018681978102C08FEF9FEFF2
S11343602B96E2E10C94D32520FD09C0FC0123FD2A
S113437005C022FF02C07383628351834083089582
S113438044FD17C046FD17C0AB01BC01DA01FB01B7
S1134390AA0FBB1FEE1FFF1F1094D1F74A0F5B1F1C
S11343A06E1F7F1FCB01BA01660F771F881F991FED
S11343B009C033E001C034E0660F771F881F991FDE
S11343C03150D1F7620F711D811D911D08950F9316
S11343D01F93CF93DF938C01C8010E948B24EC01BF
S11343E097FD08C00E946124892BB1F7B801CE0162
S11343F00E940525CE01DF91CF911F910F91089561
S11344008F929F92AF92BF92EF92FF920F931F935E
S1134410CF93DF938C01D62F7A01B22E0E948B2486
S11344209C0133272B32310531F02D32310561F4F3
S11344308B2D8068B82ED15011F480E068C0C8017B
S11344400E948B2497FDF9CFCB2DCD7F2B2D20738C
S113445009F58033F9F4AA24AA94AD0E09F443C0F3
S1134460C8010E948B2497FD3EC09C012F7D3327F9
S11344702835310549F4C264D250A9F1C8010E941B
S11344808B2497FF07C02FC0B6FE02C0C26001C0D4
S1134490C261DA2D812C912C540120ED280F283093
S11344A080F0C4FF04C0B8010E94052519C02A3059
S11344B040F0C6FFF8CF2F7D3FEE320F363098F72D
S11344C027504C2FC501B4010E94C0214B015C014F
S11344D0C260D15059F0C8010E948B2497FFDDCFF0
S11344E0C1FD04C0AACF812C912C5401C7FF08C080
S11344F0B094A09490948094811C911CA11CB11C34
S11345002C2FB501A401C7010E94B42181E0DF91E1
S1134510CF911F910F91FF90EF90BF90AF909F901C
S11345208F900895A0E2B0E0E8E9F2E20C94BA2595
S11345305C01962E7A01F9018E010F5F1F4F68010D
S113454080E2D8011D928A95E9F7D50113968C90E3
S113455080E090E0612C712C30E061E070E083FC3D
S1134560259183FE21918F01522E211103C080E0F9
S113457090E092C02E3511F4009751F1432F50E092
S1134580481759073CF42D3559F12D3219F4772089
S113459009F103C0772009F46AC0452D4695469574
S11345A04695D601A40FB11D452D47708B0102C05D
S11345B0000F111F4A95E2F7A8015C91452B4C931B
S11345C0651459F0561410F45394E7CF5A94E5CF78
S11345D031E004C07724739401C0712C0196BFCFDD
S11345E0772019F08E8180628E83311103C0882474
S11345F0839417C0F6019E012F5D3F4F8081809503
S113460081932E173F07D1F7F2CFE114F10429F07B
S1134610D7018C93F70131967F019A94812C9920CC
S1134620F9F0C5010E948B2497FD18C0FC01FF27F7
S113463023E0F595E7952A95E1F7EC0DFD1D208122
S113464030E0AC014770552702C0359527954A954F
S1134650E2F720FDDACFB5010E940525811087CF4E
S1134660E114F10411F0D7011C92C80115C0422FC6
S1134670469546954695D601A40FB11D422F477025
S11346808B0102C0000F111F4A95E2F7A8015C914B
S1134690452B4C93622EA2CFA096EFE00C94D62526
S11346A0A0E0B0E0E6E5F3E20C94BA256C01EB017E
S11346B05A01FC0117821682512CF601E380FE0197
S11346C0E3FC8591E3FE8191182FEF01882309F41F
S11346D0EEC090E00E946124892B21F0C6010E9463
S11346E0E721EBCF153241F4FE01E3FC1591E3FE23
S11346F01191EF01153281F4C6010E948B2497FDBC
S1134700D4C0412F50E09C01332724173507A9F268
S1134710B6010E940525CBC01A3239F4E3FC159189
S1134720E3FE1191EF0101E001C000E0F12C20ED66
S1134730210F2A3080F402606F2D70E080E090E059
S113474040E20E94C021F62EFE01E3FC1591E3FE37
S11347501191EF01ECCF01FF03C0F11003C0A7C01A
S1134760FF24FA94183619F01C3651F010C0FE01DB
S1134770E3FC1591E3FE1191EF01183641F4086052
S11347800460FE01E3FC1591E3FE1191EF01112396
S113479009F48DC0612F70E08AE291E00E946A24DE
S11347A0892B09F484C000FD07C0F5018080918045
S11347B0C50102965C0102C0812C912C1E3651F475
S11347C0F6014681578160E070E0202FC4010E9409
S11347D0B42173CF1336A9F401FD02C0FF24F3946E
S11347E0C6010E948B2497FD60C08114910429F0B6
S11347F0F4018083C40101964C01FA94F110F0CFC6
S113480050C01B3559F49E01A4016F2DC6010E94AE
S11348109222EC01892B09F044C03EC0C6010E94DB
S1134820E72197FD42C01F3661F128F4143639F1AF
S1134830193651F128C0133771F0153701F123C02F
S11348408114910429F0F4016082C40101964C01A1
S1134850FA94FF2071F0C6010E948B243C0197FD5D
S113486008C00E946124892B59F3B601C3010E9438
S1134870052581149104A9F0F401108212C000628C
S113488003C0006101C00064202FA4016F2DC60184
S11348900E940022811105C0F6018381807329F4EE
S11348A006C000FD0ACF539408CF552019F0852D7A
S11348B090E002C08FEF9FEFCDB7DEB7EFE00C942E
S11348C0D62591110C947C25803219F0895085509D
S11348D0C8F70895FC010590061621F00020D9F7C9
S11348E0C00108953197CF010895FC0105906150EE
S11348F070400110D8F7809590958E0F9F1F0895F2
S1134900FC016150704001900110D8F7809590959A
S11349108E0F9F1F0895CF93DF93EC012B8120FF0F
S113492033C026FF0AC02F7B2B838E819F81019683
S11349309F838E838A8190E029C022FF0FC0E88183
S1134940F9818081082E000C990B009719F42062DC
S11349502B831AC03196F983E8830EC0EA85FB8560
S1134960099597FF09C02B81019611F080E201C0DF
S113497080E1822B8B8308C02E813F812F5F3F4FC4
S11349803F832E83992702C08FEF9FEFDF91CF9152
S113499008950F931F93CF93DF93FB01238121FD90
S11349A003C08FEF9FEF2CC022FF16C046815781B2
S11349B0248135814217530744F4A081B1819D01BC
S11349C02F5F3F4F318320838C93268137812F5F64
S11349D03F4F3783268314C08B01EC01FB01008415
S11349E0F185E02D0995892BE1F6D80116968D9174
S11349F09C911797019617969C938E931697CE01C8
S1134A00DF91CF911F910F910895FB01238120FF26
S1134A1012C026FD10C08F3F3FEF930761F08283E1
S1134A202F7D2064238326813781215031093783E8
S1134A302683992708958FEF9FEF0895FA01AA27F7
S1134A40283051F1203181F1E8946F936E7F6E5FCD
S1134A507F4F8F4F9F4FAF4FB1E03ED0B4E03CD07B
S1134A60670F781F891F9A1FA11D680F791F8A1F5E
S1134A70911DA11D6A0F711D811D911DA11D20D0C5
S1134A8009F468943F912AE0269F11243019305D7F
S1134A903193DEF6CF010895462F4770405D419370
S1134AA0B3E00FD0C9F7F6CF462F4F70405D4A33BD
S1134AB018F0495D31FD4052419302D0A9F7EACF85
S1134AC0B4E0A6959795879577956795BA95C9F7B4
S1134AD000976105710508959B01AC010A2E0694A7
S1134AE05795479537952795BA95C9F7620F731F60
S1134AF0841F951FA01D0895992788270895DC0118
S1134B00CB01FC01F999FECF06C0F2BDE1BDF89AD4
S1134B10319600B40D9241505040B8F70895F99978
S1134B20FECF92BD81BDF89A992780B50895262FAE
S1134B30F999FECF92BD81BDF89A019700B402168F
S1134B4039F01FBA20BD0FB6F894FA9AF99A0FBE3D
S1134B500895262FF999FECF1FBA92BD81BD20BDBD
S1134B600FB6F894FA9AF99A0FBE019608952F9207
S1134B703F924F925F926F927F928F929F92AF92E9
S1134B80BF92CF92DF92EF92FF920F931F93CF9336
S1134B90DF93CDB7DEB7CA1BDB0B0FB6F894DEBFCD
S1134BA00FBECDBF09942A88398848885F846E84F3
S1134BB07D848C849B84AA84B984C884DF80EE803D
S1134BC0FD800C811B81AA81B981CE0FD11D0FB646
S1134BD0F894DEBF0FBECDBFED010895F894FFCF6A
S1134BE0FFFFFF008000800041542B434950534590
S1134BF0525645523D312C25640D0A003139322E6E
S1134C003136382E312E33300041542B4349505322
S10B4C1054413D25730D0A0017
S9030000FC
